{"abi":[{"type":"function","name":"callTranferFunctionDirectly","inputs":[{"name":"ad","type":"address","internalType":"address"},{"name":"amount","type":"uint256","internalType":"uint256"}],"outputs":[{"name":"","type":"bool","internalType":"bool"},{"name":"","type":"bytes4","internalType":"bytes4"}],"stateMutability":"nonpayable"},{"type":"function","name":"callTranferFunctionDirectlySig","inputs":[{"name":"ad","type":"address","internalType":"address"},{"name":"amount","type":"uint256","internalType":"uint256"}],"outputs":[{"name":"","type":"bool","internalType":"bool"},{"name":"","type":"bytes4","internalType":"bytes4"}],"stateMutability":"nonpayable"},{"type":"function","name":"getAddressAmount","inputs":[],"outputs":[{"name":"","type":"address","internalType":"address"},{"name":"","type":"uint256","internalType":"uint256"}],"stateMutability":"view"},{"type":"function","name":"getDataWithCallTransfer","inputs":[{"name":"ad","type":"address","internalType":"address"},{"name":"amount","type":"uint256","internalType":"uint256"}],"outputs":[{"name":"","type":"bytes","internalType":"bytes"}],"stateMutability":"pure"},{"type":"function","name":"getSelector","inputs":[],"outputs":[{"name":"selector","type":"bytes4","internalType":"bytes4"}],"stateMutability":"pure"},{"type":"function","name":"s_amount","inputs":[],"outputs":[{"name":"","type":"uint256","internalType":"uint256"}],"stateMutability":"view"},{"type":"function","name":"s_someAddress","inputs":[],"outputs":[{"name":"","type":"address","internalType":"address"}],"stateMutability":"view"},{"type":"function","name":"senderAddress","inputs":[],"outputs":[{"name":"","type":"address","internalType":"address"}],"stateMutability":"view"},{"type":"function","name":"transfer","inputs":[{"name":"someAddress","type":"address","internalType":"address"},{"name":"amount","type":"uint256","internalType":"uint256"}],"outputs":[{"name":"","type":"address","internalType":"address"},{"name":"","type":"uint256","internalType":"uint256"}],"stateMutability":"nonpayable"}],"bytecode":{"object":"0x6080604052600280546001600160a01b03191673f39fd6e51aad88f6f4ce6ab8827279cfffb92266179055348015603557600080fd5b50610495806100456000396000f3fe608060405234801561001057600080fd5b50600436106100935760003560e01c8063a9059cbb11610066578063a9059cbb1461013f578063aad229d514610175578063b85aed8a14610188578063c6e93bad146101bb578063d2ae7cc6146101d257600080fd5b8063034899bc146100985780634fc84791146100be5780636bee8ffc146100e957806373d04a9214610109575b600080fd5b6100a06101e5565b6040516001600160e01b031990911681526020015b60405180910390f35b6002546100d1906001600160a01b031681565b6040516001600160a01b0390911681526020016100b5565b6100fc6100f7366004610376565b61023e565b6040516100b591906103d2565b6101206000546001546001600160a01b0390911691565b604080516001600160a01b0390931683526020830191909152016100b5565b61012061014d366004610376565b600080546001600160a01b0319166001600160a01b0393909316928317905560018190559091565b6000546100d1906001600160a01b031681565b61019b610196366004610376565b61029e565b6040805192151583526001600160e01b03199091166020830152016100b5565b6101c460015481565b6040519081526020016100b5565b61019b6101e0366004610376565b610359565b60408051808201909152601981527f7472616e7366657228616464726573732c75696e7432353629000000000000006020909101527fa9059cbb2ab09eb219583f4a59a5d0623ade346d962bcd4e46b11da047c9049b90565b60606102486101e5565b6040516001600160a01b03851660248201526044810184905260640160408051601f198184030181529190526020810180516001600160e01b03166001600160e01b031990931692909217909152905092915050565b6040516001600160a01b038316602482015260448101829052600090819081908190309060640160408051601f198184030181529181526020820180516001600160e01b031663a9059cbb60e01b179052516102fa9190610405565b6000604051808303816000865af19150503d8060008114610337576040519150601f19603f3d011682016040523d82523d6000602084013e61033c565b606091505b5091509150818161034c90610421565b9350935050509250929050565b600080808030610369878761023e565b6040516102fa9190610405565b6000806040838503121561038957600080fd5b82356001600160a01b03811681146103a057600080fd5b946020939093013593505050565b60005b838110156103c95781810151838201526020016103b1565b50506000910152565b60208152600082518060208401526103f18160408501602087016103ae565b601f01601f19169190910160400192915050565b600082516104178184602087016103ae565b9190910192915050565b805160208201516001600160e01b0319811691906004821015610458576001600160e01b0319600483900360031b81901b82161692505b505091905056fea2646970667358221220234f78ab68e6ab9cc3bd774e1cb7bb07b16933ae71aa908a1d06960231f48fbf64736f6c634300081a0033","linkReferences":{}},"methodIdentifiers":{"callTranferFunctionDirectly(address,uint256)":"d2ae7cc6","callTranferFunctionDirectlySig(address,uint256)":"b85aed8a","getAddressAmount()":"73d04a92","getDataWithCallTransfer(address,uint256)":"6bee8ffc","getSelector()":"034899bc","s_amount()":"c6e93bad","s_someAddress()":"aad229d5","senderAddress()":"4fc84791","transfer(address,uint256)":"a9059cbb"},"id":44}