{"abi":[{"type":"constructor","inputs":[{"name":"contractToCall","type":"address","internalType":"address"}],"stateMutability":"nonpayable"},{"type":"function","name":"callContractAddressFunctionWithSig","inputs":[{"name":"account","type":"address","internalType":"address"},{"name":"amount","type":"uint256","internalType":"uint256"}],"outputs":[{"name":"","type":"bool","internalType":"bool"},{"name":"","type":"bytes4","internalType":"bytes4"}],"stateMutability":"nonpayable"}],"bytecode":{"object":"0x6080604052348015600f57600080fd5b5060405161028e38038061028e833981016040819052602c916050565b600080546001600160a01b0319166001600160a01b0392909216919091179055607e565b600060208284031215606157600080fd5b81516001600160a01b0381168114607757600080fd5b9392505050565b6102018061008d6000396000f3fe608060405234801561001057600080fd5b506004361061002b5760003560e01c806308adf07e14610030575b600080fd5b61004361003e366004610126565b610067565b6040805192151583526001600160e01b031990911660208301520160405180910390f35b600080546040516001600160a01b038581166024830152604482018590528392839283929091169060640160408051601f198184030181529181526020820180516001600160e01b031663a9059cbb60e01b179052516100c7919061015e565b6000604051808303816000865af19150503d8060008114610104576040519150601f19603f3d011682016040523d82523d6000602084013e610109565b606091505b509150915081816101199061018d565b9350935050509250929050565b6000806040838503121561013957600080fd5b82356001600160a01b038116811461015057600080fd5b946020939093013593505050565b6000825160005b8181101561017f5760208186018101518583015201610165565b506000920191825250919050565b805160208201516001600160e01b03198116919060048210156101c4576001600160e01b0319600483900360031b81901b82161692505b505091905056fea264697066735822122010b86909a3aa250e3410974a804f2ded03d34588850972966762cc657771ca9d64736f6c634300081a0033","linkReferences":{}},"methodIdentifiers":{"callContractAddressFunctionWithSig(address,uint256)":"08adf07e"},"id":44}